{
  "address": "0xCc55B05EaEe856545E54D1A290A953192c8E28d5",
  "abi": [
    {
      "inputs": [
        {
          "internalType": "uint256",
          "name": "interval",
          "type": "uint256"
        },
        {
          "internalType": "uint32",
          "name": "callbackgaslimit",
          "type": "uint32"
        },
        {
          "internalType": "uint64",
          "name": "subscriptionId",
          "type": "uint64"
        },
        {
          "internalType": "bytes32",
          "name": "gaslane",
          "type": "bytes32"
        },
        {
          "internalType": "address",
          "name": "vrfCoordinatorV2",
          "type": "address"
        },
        {
          "internalType": "uint256",
          "name": "entranceFee",
          "type": "uint256"
        }
      ],
      "stateMutability": "nonpayable",
      "type": "constructor"
    },
    {
      "inputs": [
        {
          "internalType": "address",
          "name": "have",
          "type": "address"
        },
        {
          "internalType": "address",
          "name": "want",
          "type": "address"
        }
      ],
      "name": "OnlyCoordinatorCanFulfill",
      "type": "error"
    },
    {
      "inputs": [],
      "name": "Raffle__notOpen",
      "type": "error"
    },
    {
      "inputs": [],
      "name": "notEnoughFee",
      "type": "error"
    },
    {
      "inputs": [],
      "name": "upKeepnotNeeded",
      "type": "error"
    },
    {
      "anonymous": false,
      "inputs": [
        {
          "indexed": true,
          "internalType": "address",
          "name": "player",
          "type": "address"
        }
      ],
      "name": "LotteryEnter",
      "type": "event"
    },
    {
      "anonymous": false,
      "inputs": [
        {
          "indexed": true,
          "internalType": "uint256",
          "name": "requestId",
          "type": "uint256"
        }
      ],
      "name": "RequestLotteryWinner",
      "type": "event"
    },
    {
      "anonymous": false,
      "inputs": [
        {
          "indexed": true,
          "internalType": "address",
          "name": "winner",
          "type": "address"
        }
      ],
      "name": "winnerPicked",
      "type": "event"
    },
    {
      "inputs": [
        {
          "internalType": "bytes",
          "name": "",
          "type": "bytes"
        }
      ],
      "name": "checkUpkeep",
      "outputs": [
        {
          "internalType": "bool",
          "name": "upkeepNeeded",
          "type": "bool"
        },
        {
          "internalType": "bytes",
          "name": "",
          "type": "bytes"
        }
      ],
      "stateMutability": "view",
      "type": "function"
    },
    {
      "inputs": [],
      "name": "enterLottery",
      "outputs": [],
      "stateMutability": "payable",
      "type": "function"
    },
    {
      "inputs": [],
      "name": "getEntranceFee",
      "outputs": [
        {
          "internalType": "uint256",
          "name": "",
          "type": "uint256"
        }
      ],
      "stateMutability": "view",
      "type": "function"
    },
    {
      "inputs": [],
      "name": "getLotteryState",
      "outputs": [
        {
          "internalType": "enum lottery.LotteryState",
          "name": "",
          "type": "uint8"
        }
      ],
      "stateMutability": "view",
      "type": "function"
    },
    {
      "inputs": [],
      "name": "getNumOfPlayers",
      "outputs": [
        {
          "internalType": "uint256",
          "name": "",
          "type": "uint256"
        }
      ],
      "stateMutability": "view",
      "type": "function"
    },
    {
      "inputs": [
        {
          "internalType": "uint256",
          "name": "index",
          "type": "uint256"
        }
      ],
      "name": "getPlayer",
      "outputs": [
        {
          "internalType": "address",
          "name": "",
          "type": "address"
        }
      ],
      "stateMutability": "view",
      "type": "function"
    },
    {
      "inputs": [],
      "name": "getRecentWinner",
      "outputs": [
        {
          "internalType": "address",
          "name": "",
          "type": "address"
        }
      ],
      "stateMutability": "view",
      "type": "function"
    },
    {
      "inputs": [
        {
          "internalType": "bytes",
          "name": "",
          "type": "bytes"
        }
      ],
      "name": "performUpkeep",
      "outputs": [],
      "stateMutability": "nonpayable",
      "type": "function"
    },
    {
      "inputs": [
        {
          "internalType": "uint256",
          "name": "requestId",
          "type": "uint256"
        },
        {
          "internalType": "uint256[]",
          "name": "randomWords",
          "type": "uint256[]"
        }
      ],
      "name": "rawFulfillRandomWords",
      "outputs": [],
      "stateMutability": "nonpayable",
      "type": "function"
    }
  ],
  "transactionHash": "0xa39253383c686f521e03d097e163e78ef9a4638b66ecd905ae0e852f685cc8c3",
  "args": [
    "30",
    100,
    "14",
    "0x8af398995b04c28e9951adb9721ef74c74f93e6a478f39e7e0777be13527e7ef",
    "0x2Fe6d6C567c350ce7B4C54BB7e65De74B80156cC",
    "10000000000000000"
  ],
  "numDeployments": 14,
  "solcInputHash": "b7f2c81a76366b873d642fa358f1f327",
  "bytecode": "0x6101606040523480156200001257600080fd5b5060405162001765380380620017658339818101604052810190620000389190620001d1565b818073ffffffffffffffffffffffffffffffffffffffff1660808173ffffffffffffffffffffffffffffffffffffffff1660601b81525050508060a081815250508173ffffffffffffffffffffffffffffffffffffffff1660c08173ffffffffffffffffffffffffffffffffffffffff1660601b815250508260e081815250508367ffffffffffffffff166101208167ffffffffffffffff1660c01b815250506000600160146101000a81548160ff0219169083600181111562000125577f4e487b7100000000000000000000000000000000000000000000000000000000600052602160045260246000fd5b02179055508463ffffffff166101008163ffffffff1660e01b815250504260028190555085610140818152505050505050505062000355565b6000815190506200016f81620002d3565b92915050565b6000815190506200018681620002ed565b92915050565b6000815190506200019d8162000307565b92915050565b600081519050620001b48162000321565b92915050565b600081519050620001cb816200033b565b92915050565b60008060008060008060c08789031215620001eb57600080fd5b6000620001fb89828a016200018c565b96505060206200020e89828a01620001a3565b95505060406200022189828a01620001ba565b94505060606200023489828a0162000175565b93505060806200024789828a016200015e565b92505060a06200025a89828a016200018c565b9150509295509295509295565b6000620002748262000285565b9050919050565b6000819050919050565b600073ffffffffffffffffffffffffffffffffffffffff82169050919050565b6000819050919050565b600063ffffffff82169050919050565b600067ffffffffffffffff82169050919050565b620002de8162000267565b8114620002ea57600080fd5b50565b620002f8816200027b565b81146200030457600080fd5b50565b6200031281620002a5565b81146200031e57600080fd5b50565b6200032c81620002af565b81146200033857600080fd5b50565b6200034681620002bf565b81146200035257600080fd5b50565b60805160601c60a05160c05160601c60e0516101005160e01c6101205160c01c6101405161139b620003ca60003960006105c2015260006103fb0152600061041e015260006103da0152600061039e0152600081816102120152610669015260008181610238015261028c015261139b6000f3fe6080604052600436106100865760003560e01c8063565429de11610059578063565429de146101335780636b68c03c1461015e5780636e04ff0d14610189578063c1af5785146101c7578063e55ae4e8146101d157610086565b806309bc33a71461008b5780631fe543e3146100b65780634585e33b146100df578063473f1ddc14610108575b600080fd5b34801561009757600080fd5b506100a061020e565b6040516100ad9190611025565b60405180910390f35b3480156100c257600080fd5b506100dd60048036038101906100d89190610e06565b610236565b005b3480156100eb57600080fd5b5061010660048036038101906101019190610d2e565b6102f6565b005b34801561011457600080fd5b5061011d6104e6565b60405161012a9190610f43565b60405180910390f35b34801561013f57600080fd5b50610148610510565b6040516101559190611025565b60405180910390f35b34801561016a57600080fd5b5061017361051c565b604051610180919061100a565b60405180910390f35b34801561019557600080fd5b506101b060048036038101906101ab9190610d73565b610533565b6040516101be929190610f87565b60405180910390f35b6101cf610667565b005b3480156101dd57600080fd5b506101f860048036038101906101f39190610db4565b6107df565b6040516102059190610f43565b60405180910390f35b60007f0000000000000000000000000000000000000000000000000000000000000000905090565b7f000000000000000000000000000000000000000000000000000000000000000073ffffffffffffffffffffffffffffffffffffffff163373ffffffffffffffffffffffffffffffffffffffff16146102e857337f00000000000000000000000000000000000000000000000000000000000000006040517f1cf993f40000000000000000000000000000000000000000000000000000000081526004016102df929190610f5e565b60405180910390fd5b6102f2828261084c565b5050565b600061031060405180602001604052806000815250610533565b5090508061034a576040517f3e754e5000000000000000000000000000000000000000000000000000000000815260040160405180910390fd5b60018060146101000a81548160ff02191690836001811115610395577f4e487b7100000000000000000000000000000000000000000000000000000000600052602160045260246000fd5b021790555060007f000000000000000000000000000000000000000000000000000000000000000073ffffffffffffffffffffffffffffffffffffffff16635d3b1d307f00000000000000000000000000000000000000000000000000000000000000007f000000000000000000000000000000000000000000000000000000000000000060037f000000000000000000000000000000000000000000000000000000000000000060016040518663ffffffff1660e01b815260040161045f959493929190610fb7565b602060405180830381600087803b15801561047957600080fd5b505af115801561048d573d6000803e3d6000fd5b505050506040513d601f19601f820116820180604052508101906104b19190610ddd565b9050807feddaba8a57dcfd3a637ac76edea7af81443028e0bd6e6cb23bd210a4a85ba85660405160405180910390a250505050565b6000600160009054906101000a900473ffffffffffffffffffffffffffffffffffffffff16905090565b60008080549050905090565b6000600160149054906101000a900460ff16905090565b600060606000600160149054906101000a900460ff166001811115610581577f4e487b7100000000000000000000000000000000000000000000000000000000600052602160045260246000fd5b600060018111156105bb577f4e487b7100000000000000000000000000000000000000000000000000000000600052602160045260246000fd5b14905060007f0000000000000000000000000000000000000000000000000000000000000000600254426105ef91906110e9565b1190506000806000805490501190506000804711905082801561060f5750835b80156106185750805b80156106215750815b9550856040518060400160405280600381526020017f30783000000000000000000000000000000000000000000000000000000000008152509550955050505050915091565b7f00000000000000000000000000000000000000000000000000000000000000003410156106c1576040517ff3f9345600000000000000000000000000000000000000000000000000000000815260040160405180910390fd5b600060018111156106fb577f4e487b7100000000000000000000000000000000000000000000000000000000600052602160045260246000fd5b600160149054906101000a900460ff166001811115610743577f4e487b7100000000000000000000000000000000000000000000000000000000600052602160045260246000fd5b1461077a576040517f4ff3426e00000000000000000000000000000000000000000000000000000000815260040160405180910390fd5b6000339080600181540180825580915050600190039060005260206000200160009091909190916101000a81548173ffffffffffffffffffffffffffffffffffffffff021916908373ffffffffffffffffffffffffffffffffffffffff160217905550565b600080828154811061081a577f4e487b7100000000000000000000000000000000000000000000000000000000600052603260045260246000fd5b9060005260206000200160009054906101000a900473ffffffffffffffffffffffffffffffffffffffff169050919050565b600080805490508260008151811061088d577f4e487b7100000000000000000000000000000000000000000000000000000000600052603260045260246000fd5b602002602001015161089f9190611239565b905060008082815481106108dc577f4e487b7100000000000000000000000000000000000000000000000000000000600052603260045260246000fd5b9060005260206000200160009054906101000a900473ffffffffffffffffffffffffffffffffffffffff16905080600160006101000a81548173ffffffffffffffffffffffffffffffffffffffff021916908373ffffffffffffffffffffffffffffffffffffffff160217905550426002819055506000600160146101000a81548160ff0219169083600181111561099d577f4e487b7100000000000000000000000000000000000000000000000000000000600052602160045260246000fd5b0217905550600067ffffffffffffffff8111156109e3577f4e487b7100000000000000000000000000000000000000000000000000000000600052604160045260246000fd5b604051908082528060200260200182016040528015610a115781602001602082028036833780820191505090505b5060009080519060200190610a27929190610b15565b5060008173ffffffffffffffffffffffffffffffffffffffff1647604051610a4e90610f2e565b60006040518083038185875af1925050503d8060008114610a8b576040519150601f19603f3d011682016040523d82523d6000602084013e610a90565b606091505b5050905080610acb576040517ff3f9345600000000000000000000000000000000000000000000000000000000815260040160405180910390fd5b8173ffffffffffffffffffffffffffffffffffffffff167f794919b0f484b8e90b1b817ac7f880f846fbd8a9813dee2a378e820db094e3d160405160405180910390a25050505050565b828054828255906000526020600020908101928215610b8e579160200282015b82811115610b8d5782518260006101000a81548173ffffffffffffffffffffffffffffffffffffffff021916908373ffffffffffffffffffffffffffffffffffffffff16021790555091602001919060010190610b35565b5b509050610b9b9190610b9f565b5090565b5b80821115610bb8576000816000905550600101610ba0565b5090565b6000610bcf610bca84611065565b611040565b90508083825260208201905082856020860282011115610bee57600080fd5b60005b85811015610c1e5781610c048882610d04565b845260208401935060208301925050600181019050610bf1565b5050509392505050565b6000610c3b610c3684611091565b611040565b905082815260208101848484011115610c5357600080fd5b610c5e8482856111c6565b509392505050565b600082601f830112610c7757600080fd5b8135610c87848260208601610bbc565b91505092915050565b60008083601f840112610ca257600080fd5b8235905067ffffffffffffffff811115610cbb57600080fd5b602083019150836001820283011115610cd357600080fd5b9250929050565b600082601f830112610ceb57600080fd5b8135610cfb848260208601610c28565b91505092915050565b600081359050610d138161134e565b92915050565b600081519050610d288161134e565b92915050565b60008060208385031215610d4157600080fd5b600083013567ffffffffffffffff811115610d5b57600080fd5b610d6785828601610c90565b92509250509250929050565b600060208284031215610d8557600080fd5b600082013567ffffffffffffffff811115610d9f57600080fd5b610dab84828501610cda565b91505092915050565b600060208284031215610dc657600080fd5b6000610dd484828501610d04565b91505092915050565b600060208284031215610def57600080fd5b6000610dfd84828501610d19565b91505092915050565b60008060408385031215610e1957600080fd5b6000610e2785828601610d04565b925050602083013567ffffffffffffffff811115610e4457600080fd5b610e5085828601610c66565b9150509250929050565b610e638161111d565b82525050565b610e728161112f565b82525050565b610e818161113b565b82525050565b6000610e92826110c2565b610e9c81856110cd565b9350610eac8185602086016111d5565b610eb581611326565b840191505092915050565b610ec9816111b4565b82525050565b6000610edc6000836110de565b9150610ee782611337565b600082019050919050565b610efb81611158565b82525050565b610f0a81611186565b82525050565b610f1981611190565b82525050565b610f28816111a0565b82525050565b6000610f3982610ecf565b9150819050919050565b6000602082019050610f586000830184610e5a565b92915050565b6000604082019050610f736000830185610e5a565b610f806020830184610e5a565b9392505050565b6000604082019050610f9c6000830185610e69565b8181036020830152610fae8184610e87565b90509392505050565b600060a082019050610fcc6000830188610e78565b610fd96020830187610f1f565b610fe66040830186610ef2565b610ff36060830185610f10565b6110006080830184610f10565b9695505050505050565b600060208201905061101f6000830184610ec0565b92915050565b600060208201905061103a6000830184610f01565b92915050565b600061104a61105b565b90506110568282611208565b919050565b6000604051905090565b600067ffffffffffffffff8211156110805761107f6112f7565b5b602082029050602081019050919050565b600067ffffffffffffffff8211156110ac576110ab6112f7565b5b6110b582611326565b9050602081019050919050565b600081519050919050565b600082825260208201905092915050565b600081905092915050565b60006110f482611186565b91506110ff83611186565b9250828210156111125761111161126a565b5b828203905092915050565b600061112882611166565b9050919050565b60008115159050919050565b6000819050919050565b60008190506111538261133a565b919050565b600061ffff82169050919050565b600073ffffffffffffffffffffffffffffffffffffffff82169050919050565b6000819050919050565b600063ffffffff82169050919050565b600067ffffffffffffffff82169050919050565b60006111bf82611145565b9050919050565b82818337600083830152505050565b60005b838110156111f35780820151818401526020810190506111d8565b83811115611202576000848401525b50505050565b61121182611326565b810181811067ffffffffffffffff821117156112305761122f6112f7565b5b80604052505050565b600061124482611186565b915061124f83611186565b92508261125f5761125e611299565b5b828206905092915050565b7f4e487b7100000000000000000000000000000000000000000000000000000000600052601160045260246000fd5b7f4e487b7100000000000000000000000000000000000000000000000000000000600052601260045260246000fd5b7f4e487b7100000000000000000000000000000000000000000000000000000000600052602160045260246000fd5b7f4e487b7100000000000000000000000000000000000000000000000000000000600052604160045260246000fd5b6000601f19601f8301169050919050565b50565b6002811061134b5761134a6112c8565b5b50565b61135781611186565b811461136257600080fd5b5056fea2646970667358221220a7cab0f65733b2f5b8256deb4cdb603fc61627da10b4bdde497baec1ec23a19c64736f6c63430008040033",
  "devdoc": {
    "kind": "dev",
    "methods": {
      "checkUpkeep(bytes)": {
        "details": "This is the function that the Chainlink Keeper nodes call they look for `upkeepNeeded` to return True. the following should be true for this to return true: 1. The time interval has passed between raffle runs. 2. The lottery is open. 3. The contract has ETH. 4. Implicity, your subscription is funded with LINK."
      }
    },
    "version": 1
  },
  "userdoc": {
    "kind": "user",
    "methods": {},
    "version": 1
  },
  "storageLayout": {
    "storage": [
      {
        "astId": 234,
        "contract": "contracts/lottery.sol:lottery",
        "label": "s_players",
        "offset": 0,
        "slot": "0",
        "type": "t_array(t_address_payable)dyn_storage"
      },
      {
        "astId": 251,
        "contract": "contracts/lottery.sol:lottery",
        "label": "s_recentWinner",
        "offset": 0,
        "slot": "1",
        "type": "t_address"
      },
      {
        "astId": 254,
        "contract": "contracts/lottery.sol:lottery",
        "label": "s_lotteryState",
        "offset": 20,
        "slot": "1",
        "type": "t_enum(LotteryState)229"
      },
      {
        "astId": 256,
        "contract": "contracts/lottery.sol:lottery",
        "label": "s_lastTImeStamp",
        "offset": 0,
        "slot": "2",
        "type": "t_uint256"
      }
    ],
    "types": {
      "t_address": {
        "encoding": "inplace",
        "label": "address",
        "numberOfBytes": "20"
      },
      "t_address_payable": {
        "encoding": "inplace",
        "label": "address payable",
        "numberOfBytes": "20"
      },
      "t_array(t_address_payable)dyn_storage": {
        "base": "t_address_payable",
        "encoding": "dynamic_array",
        "label": "address payable[]",
        "numberOfBytes": "32"
      },
      "t_enum(LotteryState)229": {
        "encoding": "inplace",
        "label": "enum lottery.LotteryState",
        "numberOfBytes": "1"
      },
      "t_uint256": {
        "encoding": "inplace",
        "label": "uint256",
        "numberOfBytes": "32"
      }
    }
  }
}