{
  "_format": "hh-sol-artifact-1",
  "contractName": "lottery",
  "sourceName": "contracts/lottery.sol",
  "abi": [
    {
      "inputs": [
        {
          "internalType": "uint256",
          "name": "interval",
          "type": "uint256"
        },
        {
          "internalType": "uint32",
          "name": "callbackgaslimit",
          "type": "uint32"
        },
        {
          "internalType": "uint64",
          "name": "subscriptionId",
          "type": "uint64"
        },
        {
          "internalType": "bytes32",
          "name": "gaslane",
          "type": "bytes32"
        },
        {
          "internalType": "address",
          "name": "vrfCoordinatorV2",
          "type": "address"
        },
        {
          "internalType": "uint256",
          "name": "entranceFee",
          "type": "uint256"
        }
      ],
      "stateMutability": "nonpayable",
      "type": "constructor"
    },
    {
      "inputs": [
        {
          "internalType": "address",
          "name": "have",
          "type": "address"
        },
        {
          "internalType": "address",
          "name": "want",
          "type": "address"
        }
      ],
      "name": "OnlyCoordinatorCanFulfill",
      "type": "error"
    },
    {
      "inputs": [],
      "name": "Raffle__notOpen",
      "type": "error"
    },
    {
      "inputs": [],
      "name": "notEnoughFee",
      "type": "error"
    },
    {
      "inputs": [],
      "name": "upKeepnotNeeded",
      "type": "error"
    },
    {
      "anonymous": false,
      "inputs": [
        {
          "indexed": true,
          "internalType": "address",
          "name": "player",
          "type": "address"
        }
      ],
      "name": "LotteryEnter",
      "type": "event"
    },
    {
      "anonymous": false,
      "inputs": [
        {
          "indexed": true,
          "internalType": "uint256",
          "name": "requestId",
          "type": "uint256"
        }
      ],
      "name": "RequestLotteryWinner",
      "type": "event"
    },
    {
      "anonymous": false,
      "inputs": [
        {
          "indexed": true,
          "internalType": "address",
          "name": "winner",
          "type": "address"
        }
      ],
      "name": "winnerPicked",
      "type": "event"
    },
    {
      "inputs": [
        {
          "internalType": "bytes",
          "name": "",
          "type": "bytes"
        }
      ],
      "name": "checkUpkeep",
      "outputs": [
        {
          "internalType": "bool",
          "name": "upkeepNeeded",
          "type": "bool"
        },
        {
          "internalType": "bytes",
          "name": "",
          "type": "bytes"
        }
      ],
      "stateMutability": "view",
      "type": "function"
    },
    {
      "inputs": [],
      "name": "enterLottery",
      "outputs": [],
      "stateMutability": "payable",
      "type": "function"
    },
    {
      "inputs": [],
      "name": "getEntranceFee",
      "outputs": [
        {
          "internalType": "uint256",
          "name": "",
          "type": "uint256"
        }
      ],
      "stateMutability": "view",
      "type": "function"
    },
    {
      "inputs": [],
      "name": "getInterval",
      "outputs": [
        {
          "internalType": "uint256",
          "name": "",
          "type": "uint256"
        }
      ],
      "stateMutability": "view",
      "type": "function"
    },
    {
      "inputs": [],
      "name": "getLotteryState",
      "outputs": [
        {
          "internalType": "enum lottery.LotteryState",
          "name": "",
          "type": "uint8"
        }
      ],
      "stateMutability": "view",
      "type": "function"
    },
    {
      "inputs": [],
      "name": "getNumOfPlayers",
      "outputs": [
        {
          "internalType": "uint256",
          "name": "",
          "type": "uint256"
        }
      ],
      "stateMutability": "view",
      "type": "function"
    },
    {
      "inputs": [
        {
          "internalType": "uint256",
          "name": "index",
          "type": "uint256"
        }
      ],
      "name": "getPlayer",
      "outputs": [
        {
          "internalType": "address",
          "name": "",
          "type": "address"
        }
      ],
      "stateMutability": "view",
      "type": "function"
    },
    {
      "inputs": [],
      "name": "getRecentWinner",
      "outputs": [
        {
          "internalType": "address",
          "name": "",
          "type": "address"
        }
      ],
      "stateMutability": "view",
      "type": "function"
    },
    {
      "inputs": [
        {
          "internalType": "bytes",
          "name": "",
          "type": "bytes"
        }
      ],
      "name": "performUpkeep",
      "outputs": [],
      "stateMutability": "nonpayable",
      "type": "function"
    },
    {
      "inputs": [
        {
          "internalType": "uint256",
          "name": "requestId",
          "type": "uint256"
        },
        {
          "internalType": "uint256[]",
          "name": "randomWords",
          "type": "uint256[]"
        }
      ],
      "name": "rawFulfillRandomWords",
      "outputs": [],
      "stateMutability": "nonpayable",
      "type": "function"
    }
  ],
  "bytecode": "0x6101606040523480156200001257600080fd5b50604051620017ca380380620017ca8339818101604052810190620000389190620001d1565b818073ffffffffffffffffffffffffffffffffffffffff1660808173ffffffffffffffffffffffffffffffffffffffff1660601b81525050508060a081815250508173ffffffffffffffffffffffffffffffffffffffff1660c08173ffffffffffffffffffffffffffffffffffffffff1660601b815250508260e081815250508367ffffffffffffffff166101208167ffffffffffffffff1660c01b815250506000600160146101000a81548160ff0219169083600181111562000125577f4e487b7100000000000000000000000000000000000000000000000000000000600052602160045260246000fd5b02179055508463ffffffff166101008163ffffffff1660e01b815250504260028190555085610140818152505050505050505062000355565b6000815190506200016f81620002d3565b92915050565b6000815190506200018681620002ed565b92915050565b6000815190506200019d8162000307565b92915050565b600081519050620001b48162000321565b92915050565b600081519050620001cb816200033b565b92915050565b60008060008060008060c08789031215620001eb57600080fd5b6000620001fb89828a016200018c565b96505060206200020e89828a01620001a3565b95505060406200022189828a01620001ba565b94505060606200023489828a0162000175565b93505060806200024789828a016200015e565b92505060a06200025a89828a016200018c565b9150509295509295509295565b6000620002748262000285565b9050919050565b6000819050919050565b600073ffffffffffffffffffffffffffffffffffffffff82169050919050565b6000819050919050565b600063ffffffff82169050919050565b600067ffffffffffffffff82169050919050565b620002de8162000267565b8114620002ea57600080fd5b50565b620002f8816200027b565b81146200030457600080fd5b50565b6200031281620002a5565b81146200031e57600080fd5b50565b6200032c81620002af565b81146200033857600080fd5b50565b6200034681620002bf565b81146200035257600080fd5b50565b60805160601c60a05160c05160601c60e0516101005160e01c6101205160c01c610140516113f9620003d1600039600081816105f801526106a1015260006104310152600061045401526000610410015260006103d401526000818161024801526106c701526000818161026e01526102c201526113f96000f3fe6080604052600436106100915760003560e01c80636b68c03c116100595780636b68c03c146101695780636e04ff0d1461019457806391ad27b4146101d2578063c1af5785146101fd578063e55ae4e81461020757610091565b806309bc33a7146100965780631fe543e3146100c15780634585e33b146100ea578063473f1ddc14610113578063565429de1461013e575b600080fd5b3480156100a257600080fd5b506100ab610244565b6040516100b89190611083565b60405180910390f35b3480156100cd57600080fd5b506100e860048036038101906100e39190610e64565b61026c565b005b3480156100f657600080fd5b50610111600480360381019061010c9190610d8c565b61032c565b005b34801561011f57600080fd5b5061012861051c565b6040516101359190610fa1565b60405180910390f35b34801561014a57600080fd5b50610153610546565b6040516101609190611083565b60405180910390f35b34801561017557600080fd5b5061017e610552565b60405161018b9190611068565b60405180910390f35b3480156101a057600080fd5b506101bb60048036038101906101b69190610dd1565b610569565b6040516101c9929190610fe5565b60405180910390f35b3480156101de57600080fd5b506101e761069d565b6040516101f49190611083565b60405180910390f35b6102056106c5565b005b34801561021357600080fd5b5061022e60048036038101906102299190610e12565b61083d565b60405161023b9190610fa1565b60405180910390f35b60007f0000000000000000000000000000000000000000000000000000000000000000905090565b7f000000000000000000000000000000000000000000000000000000000000000073ffffffffffffffffffffffffffffffffffffffff163373ffffffffffffffffffffffffffffffffffffffff161461031e57337f00000000000000000000000000000000000000000000000000000000000000006040517f1cf993f4000000000000000000000000000000000000000000000000000000008152600401610315929190610fbc565b60405180910390fd5b61032882826108aa565b5050565b600061034660405180602001604052806000815250610569565b50905080610380576040517f3e754e5000000000000000000000000000000000000000000000000000000000815260040160405180910390fd5b60018060146101000a81548160ff021916908360018111156103cb577f4e487b7100000000000000000000000000000000000000000000000000000000600052602160045260246000fd5b021790555060007f000000000000000000000000000000000000000000000000000000000000000073ffffffffffffffffffffffffffffffffffffffff16635d3b1d307f00000000000000000000000000000000000000000000000000000000000000007f000000000000000000000000000000000000000000000000000000000000000060037f000000000000000000000000000000000000000000000000000000000000000060016040518663ffffffff1660e01b8152600401610495959493929190611015565b602060405180830381600087803b1580156104af57600080fd5b505af11580156104c3573d6000803e3d6000fd5b505050506040513d601f19601f820116820180604052508101906104e79190610e3b565b9050807feddaba8a57dcfd3a637ac76edea7af81443028e0bd6e6cb23bd210a4a85ba85660405160405180910390a250505050565b6000600160009054906101000a900473ffffffffffffffffffffffffffffffffffffffff16905090565b60008080549050905090565b6000600160149054906101000a900460ff16905090565b600060606000600160149054906101000a900460ff1660018111156105b7577f4e487b7100000000000000000000000000000000000000000000000000000000600052602160045260246000fd5b600060018111156105f1577f4e487b7100000000000000000000000000000000000000000000000000000000600052602160045260246000fd5b14905060007f0000000000000000000000000000000000000000000000000000000000000000600254426106259190611147565b119050600080600080549050119050600080471190508280156106455750835b801561064e5750805b80156106575750815b9550856040518060400160405280600381526020017f30783000000000000000000000000000000000000000000000000000000000008152509550955050505050915091565b60007f0000000000000000000000000000000000000000000000000000000000000000905090565b7f000000000000000000000000000000000000000000000000000000000000000034101561071f576040517ff3f9345600000000000000000000000000000000000000000000000000000000815260040160405180910390fd5b60006001811115610759577f4e487b7100000000000000000000000000000000000000000000000000000000600052602160045260246000fd5b600160149054906101000a900460ff1660018111156107a1577f4e487b7100000000000000000000000000000000000000000000000000000000600052602160045260246000fd5b146107d8576040517f4ff3426e00000000000000000000000000000000000000000000000000000000815260040160405180910390fd5b6000339080600181540180825580915050600190039060005260206000200160009091909190916101000a81548173ffffffffffffffffffffffffffffffffffffffff021916908373ffffffffffffffffffffffffffffffffffffffff160217905550565b6000808281548110610878577f4e487b7100000000000000000000000000000000000000000000000000000000600052603260045260246000fd5b9060005260206000200160009054906101000a900473ffffffffffffffffffffffffffffffffffffffff169050919050565b60008080549050826000815181106108eb577f4e487b7100000000000000000000000000000000000000000000000000000000600052603260045260246000fd5b60200260200101516108fd9190611297565b9050600080828154811061093a577f4e487b7100000000000000000000000000000000000000000000000000000000600052603260045260246000fd5b9060005260206000200160009054906101000a900473ffffffffffffffffffffffffffffffffffffffff16905080600160006101000a81548173ffffffffffffffffffffffffffffffffffffffff021916908373ffffffffffffffffffffffffffffffffffffffff160217905550426002819055506000600160146101000a81548160ff021916908360018111156109fb577f4e487b7100000000000000000000000000000000000000000000000000000000600052602160045260246000fd5b0217905550600067ffffffffffffffff811115610a41577f4e487b7100000000000000000000000000000000000000000000000000000000600052604160045260246000fd5b604051908082528060200260200182016040528015610a6f5781602001602082028036833780820191505090505b5060009080519060200190610a85929190610b73565b5060008173ffffffffffffffffffffffffffffffffffffffff1647604051610aac90610f8c565b60006040518083038185875af1925050503d8060008114610ae9576040519150601f19603f3d011682016040523d82523d6000602084013e610aee565b606091505b5050905080610b29576040517ff3f9345600000000000000000000000000000000000000000000000000000000815260040160405180910390fd5b8173ffffffffffffffffffffffffffffffffffffffff167f794919b0f484b8e90b1b817ac7f880f846fbd8a9813dee2a378e820db094e3d160405160405180910390a25050505050565b828054828255906000526020600020908101928215610bec579160200282015b82811115610beb5782518260006101000a81548173ffffffffffffffffffffffffffffffffffffffff021916908373ffffffffffffffffffffffffffffffffffffffff16021790555091602001919060010190610b93565b5b509050610bf99190610bfd565b5090565b5b80821115610c16576000816000905550600101610bfe565b5090565b6000610c2d610c28846110c3565b61109e565b90508083825260208201905082856020860282011115610c4c57600080fd5b60005b85811015610c7c5781610c628882610d62565b845260208401935060208301925050600181019050610c4f565b5050509392505050565b6000610c99610c94846110ef565b61109e565b905082815260208101848484011115610cb157600080fd5b610cbc848285611224565b509392505050565b600082601f830112610cd557600080fd5b8135610ce5848260208601610c1a565b91505092915050565b60008083601f840112610d0057600080fd5b8235905067ffffffffffffffff811115610d1957600080fd5b602083019150836001820283011115610d3157600080fd5b9250929050565b600082601f830112610d4957600080fd5b8135610d59848260208601610c86565b91505092915050565b600081359050610d71816113ac565b92915050565b600081519050610d86816113ac565b92915050565b60008060208385031215610d9f57600080fd5b600083013567ffffffffffffffff811115610db957600080fd5b610dc585828601610cee565b92509250509250929050565b600060208284031215610de357600080fd5b600082013567ffffffffffffffff811115610dfd57600080fd5b610e0984828501610d38565b91505092915050565b600060208284031215610e2457600080fd5b6000610e3284828501610d62565b91505092915050565b600060208284031215610e4d57600080fd5b6000610e5b84828501610d77565b91505092915050565b60008060408385031215610e7757600080fd5b6000610e8585828601610d62565b925050602083013567ffffffffffffffff811115610ea257600080fd5b610eae85828601610cc4565b9150509250929050565b610ec18161117b565b82525050565b610ed08161118d565b82525050565b610edf81611199565b82525050565b6000610ef082611120565b610efa818561112b565b9350610f0a818560208601611233565b610f1381611384565b840191505092915050565b610f2781611212565b82525050565b6000610f3a60008361113c565b9150610f4582611395565b600082019050919050565b610f59816111b6565b82525050565b610f68816111e4565b82525050565b610f77816111ee565b82525050565b610f86816111fe565b82525050565b6000610f9782610f2d565b9150819050919050565b6000602082019050610fb66000830184610eb8565b92915050565b6000604082019050610fd16000830185610eb8565b610fde6020830184610eb8565b9392505050565b6000604082019050610ffa6000830185610ec7565b818103602083015261100c8184610ee5565b90509392505050565b600060a08201905061102a6000830188610ed6565b6110376020830187610f7d565b6110446040830186610f50565b6110516060830185610f6e565b61105e6080830184610f6e565b9695505050505050565b600060208201905061107d6000830184610f1e565b92915050565b60006020820190506110986000830184610f5f565b92915050565b60006110a86110b9565b90506110b48282611266565b919050565b6000604051905090565b600067ffffffffffffffff8211156110de576110dd611355565b5b602082029050602081019050919050565b600067ffffffffffffffff82111561110a57611109611355565b5b61111382611384565b9050602081019050919050565b600081519050919050565b600082825260208201905092915050565b600081905092915050565b6000611152826111e4565b915061115d836111e4565b9250828210156111705761116f6112c8565b5b828203905092915050565b6000611186826111c4565b9050919050565b60008115159050919050565b6000819050919050565b60008190506111b182611398565b919050565b600061ffff82169050919050565b600073ffffffffffffffffffffffffffffffffffffffff82169050919050565b6000819050919050565b600063ffffffff82169050919050565b600067ffffffffffffffff82169050919050565b600061121d826111a3565b9050919050565b82818337600083830152505050565b60005b83811015611251578082015181840152602081019050611236565b83811115611260576000848401525b50505050565b61126f82611384565b810181811067ffffffffffffffff8211171561128e5761128d611355565b5b80604052505050565b60006112a2826111e4565b91506112ad836111e4565b9250826112bd576112bc6112f7565b5b828206905092915050565b7f4e487b7100000000000000000000000000000000000000000000000000000000600052601160045260246000fd5b7f4e487b7100000000000000000000000000000000000000000000000000000000600052601260045260246000fd5b7f4e487b7100000000000000000000000000000000000000000000000000000000600052602160045260246000fd5b7f4e487b7100000000000000000000000000000000000000000000000000000000600052604160045260246000fd5b6000601f19601f8301169050919050565b50565b600281106113a9576113a8611326565b5b50565b6113b5816111e4565b81146113c057600080fd5b5056fea264697066735822122006397e454e2433d2c4fd1f37f98aafa94f53f599878eb1a5137abcb308e11ae764736f6c63430008040033",
  "linkReferences": {},
  "deployedLinkReferences": {}
}